{
  "contractName": "ItemManager",
  "abi": [
    {
      "anonymous": false,
      "inputs": [
        {
          "indexed": false,
          "internalType": "uint256",
          "name": "_itemIndex",
          "type": "uint256"
        },
        {
          "indexed": false,
          "internalType": "uint256",
          "name": "_status",
          "type": "uint256"
        },
        {
          "indexed": false,
          "internalType": "address",
          "name": "_itemAdress",
          "type": "address"
        }
      ],
      "name": "SupplyChainStatus",
      "type": "event"
    },
    {
      "inputs": [],
      "name": "isOwner",
      "outputs": [
        {
          "internalType": "bool",
          "name": "",
          "type": "bool"
        }
      ],
      "stateMutability": "view",
      "type": "function",
      "constant": true
    },
    {
      "inputs": [
        {
          "internalType": "uint256",
          "name": "",
          "type": "uint256"
        }
      ],
      "name": "items",
      "outputs": [
        {
          "internalType": "contract Item",
          "name": "_item",
          "type": "address"
        },
        {
          "internalType": "string",
          "name": "_identifier",
          "type": "string"
        },
        {
          "internalType": "uint256",
          "name": "_itemPrice",
          "type": "uint256"
        },
        {
          "internalType": "enum ItemManager.SupplyChainState",
          "name": "_state",
          "type": "uint8"
        }
      ],
      "stateMutability": "view",
      "type": "function",
      "constant": true
    },
    {
      "inputs": [
        {
          "internalType": "string",
          "name": "_identifier",
          "type": "string"
        },
        {
          "internalType": "uint256",
          "name": "_itemPrice",
          "type": "uint256"
        }
      ],
      "name": "createItem",
      "outputs": [],
      "stateMutability": "nonpayable",
      "type": "function"
    },
    {
      "inputs": [
        {
          "internalType": "uint256",
          "name": "_itemIndex",
          "type": "uint256"
        }
      ],
      "name": "Payment",
      "outputs": [],
      "stateMutability": "payable",
      "type": "function",
      "payable": true
    },
    {
      "inputs": [
        {
          "internalType": "uint256",
          "name": "_itemIndex",
          "type": "uint256"
        }
      ],
      "name": "Delivery",
      "outputs": [],
      "stateMutability": "nonpayable",
      "type": "function"
    }
  ],
  "bytecode": "0x6080604052336000806101000a81548173ffffffffffffffffffffffffffffffffffffffff021916908373ffffffffffffffffffffffffffffffffffffffff1602179055506110b5806100536000396000f3fe60806040526004361061004a5760003560e01c806387d764741461004f5780638c5517421461008a5780638f32d59b1461015c578063bfb231d21461018b578063d73298c51461028e575b600080fd5b34801561005b57600080fd5b506100886004803603602081101561007257600080fd5b81019080803590602001909291905050506102bc565b005b34801561009657600080fd5b5061015a600480360360408110156100ad57600080fd5b81019080803590602001906401000000008111156100ca57600080fd5b8201836020820111156100dc57600080fd5b803590602001918460018302840111640100000000831117156100fe57600080fd5b91908080601f016020809104026020016040519081016040528093929190818152602001838380828437600081840152601f19601f820116905080830192505050505050509192919290803590602001909291905050506104f9565b005b34801561016857600080fd5b50610171610780565b604051808215151515815260200191505060405180910390f35b34801561019757600080fd5b506101c4600480360360208110156101ae57600080fd5b81019080803590602001909291905050506107d7565b604051808573ffffffffffffffffffffffffffffffffffffffff1673ffffffffffffffffffffffffffffffffffffffff1681526020018060200184815260200183600281111561021057fe5b60ff168152602001828103825285818151815260200191508051906020019080838360005b83811015610250578082015181840152602081019050610235565b50505050905090810190601f16801561027d5780820380516001836020036101000a031916815260200191505b509550505050505060405180910390f35b6102ba600480360360208110156102a457600080fd5b81019080803590602001909291905050506108cc565b005b6102c4610780565b610336576040517f08c379a00000000000000000000000000000000000000000000000000000000081526004018080602001828103825260168152602001807f596f7520617265206e6f7420746865204f776e6572210000000000000000000081525060200191505060405180910390fd5b6001600281111561034357fe5b6001600083815260200190815260200160002060030160009054906101000a900460ff16600281111561037257fe5b146103e5576040517f08c379a000000000000000000000000000000000000000000000000000000000815260040180806020018281038252601f8152602001807f4974656d206973206675727468657220696e20737570706c7920636861696e0081525060200191505060405180910390fd5b60026001600083815260200190815260200160002060030160006101000a81548160ff0219169083600281111561041857fe5b02179055507f20ca44fc1fc99053800800c827a3b3219b0feca1d67ab18a74ff39cde3d4a30c6002546001600084815260200190815260200160002060030160009054906101000a900460ff16600281111561047057fe5b6001600085815260200190815260200160002060000160009054906101000a900473ffffffffffffffffffffffffffffffffffffffff16604051808481526020018381526020018273ffffffffffffffffffffffffffffffffffffffff1673ffffffffffffffffffffffffffffffffffffffff168152602001935050505060405180910390a150565b610501610780565b610573576040517f08c379a00000000000000000000000000000000000000000000000000000000081526004018080602001828103825260168152602001807f596f7520617265206e6f7420746865204f776e6572210000000000000000000081525060200191505060405180910390fd5b6000308260025460405161058690610b19565b808473ffffffffffffffffffffffffffffffffffffffff1673ffffffffffffffffffffffffffffffffffffffff1681526020018381526020018281526020019350505050604051809103906000f0801580156105e6573d6000803e3d6000fd5b5090508060016000600254815260200190815260200160002060000160006101000a81548173ffffffffffffffffffffffffffffffffffffffff021916908373ffffffffffffffffffffffffffffffffffffffff16021790555082600160006002548152602001908152602001600020600101908051906020019061066c929190610b26565b508160016000600254815260200190815260200160002060020181905550600060016000600254815260200190815260200160002060030160006101000a81548160ff021916908360028111156106bf57fe5b02179055507f20ca44fc1fc99053800800c827a3b3219b0feca1d67ab18a74ff39cde3d4a30c60025460016000600254815260200190815260200160002060030160009054906101000a900460ff16600281111561071957fe5b83604051808481526020018381526020018273ffffffffffffffffffffffffffffffffffffffff1673ffffffffffffffffffffffffffffffffffffffff168152602001935050505060405180910390a1600260008154809291906001019190505550505050565b60008060009054906101000a900473ffffffffffffffffffffffffffffffffffffffff1673ffffffffffffffffffffffffffffffffffffffff163373ffffffffffffffffffffffffffffffffffffffff1614905090565b60016020528060005260406000206000915090508060000160009054906101000a900473ffffffffffffffffffffffffffffffffffffffff1690806001018054600181600116156101000203166002900480601f0160208091040260200160405190810160405280929190818152602001828054600181600116156101000203166002900480156108a95780601f1061087e576101008083540402835291602001916108a9565b820191906000526020600020905b81548152906001019060200180831161088c57829003601f168201915b5050505050908060020154908060030160009054906101000a900460ff16905084565b34600160008381526020019081526020016000206002015414610957576040517f08c379a000000000000000000000000000000000000000000000000000000000815260040180806020018281038252601b8152602001807f4f6e6c792066756c6c207061796d656e7473206163636570746564000000000081525060200191505060405180910390fd5b6000600281111561096457fe5b6001600083815260200190815260200160002060030160009054906101000a900460ff16600281111561099357fe5b14610a06576040517f08c379a000000000000000000000000000000000000000000000000000000000815260040180806020018281038252601f8152602001807f4974656d206973206675727468657220696e20737570706c7920636861696e0081525060200191505060405180910390fd5b600180600083815260200190815260200160002060030160006101000a81548160ff02191690836002811115610a3857fe5b02179055507f20ca44fc1fc99053800800c827a3b3219b0feca1d67ab18a74ff39cde3d4a30c6002546001600084815260200190815260200160002060030160009054906101000a900460ff166002811115610a9057fe5b6001600085815260200190815260200160002060000160009054906101000a900473ffffffffffffffffffffffffffffffffffffffff16604051808481526020018381526020018273ffffffffffffffffffffffffffffffffffffffff1673ffffffffffffffffffffffffffffffffffffffff168152602001935050505060405180910390a150565b6104b480610bcc83390190565b828054600181600116156101000203166002900490600052602060002090601f016020900481019282601f10610b6757805160ff1916838001178555610b95565b82800160010185558215610b95579182015b82811115610b94578251825591602001919060010190610b79565b5b509050610ba29190610ba6565b5090565b610bc891905b80821115610bc4576000816000905550600101610bac565b5090565b9056fe608060405234801561001057600080fd5b506040516104b43803806104b48339818101604052606081101561003357600080fd5b81019080805190602001909291908051906020019092919080519060200190929190505050816000819055508060028190555082600360006101000a81548173ffffffffffffffffffffffffffffffffffffffff021916908373ffffffffffffffffffffffffffffffffffffffff1602179055505050506103fb806100b96000396000f3fe6080604052600436106100385760003560e01c80632986c0e5146103055780634ba873881461033057806389794d001461035b576102f6565b366102f6576000600154146100b5576040517f08c379a00000000000000000000000000000000000000000000000000000000081526004018080602001828103825260148152602001807f4974656d206973207061696420616c726561647900000000000000000000000081525060200191505060405180910390fd5b346000541461012c576040517f08c379a000000000000000000000000000000000000000000000000000000000815260040180806020018281038252601a8152602001807f4f6e6c792066756c6c207061796d656e747320616c6c6f77656400000000000081525060200191505060405180910390fd5b346001819055506000600360009054906101000a900473ffffffffffffffffffffffffffffffffffffffff1673ffffffffffffffffffffffffffffffffffffffff1634600254604051602401808281526020019150506040516020818303038152906040527fd73298c5000000000000000000000000000000000000000000000000000000007bffffffffffffffffffffffffffffffffffffffffffffffffffffffff19166020820180517bffffffffffffffffffffffffffffffffffffffffffffffffffffffff83818316178352505050506040518082805190602001908083835b60208310610232578051825260208201915060208101905060208303925061020f565b6001836020036101000a03801982511681845116808217855250505050505090500191505060006040518083038185875af1925050503d8060008114610294576040519150601f19603f3d011682016040523d82523d6000602084013e610299565b606091505b50509050806102f3576040517f08c379a000000000000000000000000000000000000000000000000000000000815260040180806020018281038252602d815260200180610399602d913960400191505060405180910390fd5b50005b34801561030257600080fd5b50005b34801561031157600080fd5b5061031a610386565b6040518082815260200191505060405180910390f35b34801561033c57600080fd5b5061034561038c565b6040518082815260200191505060405180910390f35b34801561036757600080fd5b50610370610392565b6040518082815260200191505060405180910390f35b60025481565b60005481565b6001548156fe546865207472616e73616374696f6e207761736e6074207375636365737366756c2c2063616e63656c6c696e67a26469706673582212204c1462ca434307984bd003099d0c6867117be62f4d0d2a782dc5085f45116f2664736f6c63430006010033a26469706673582212208c4fba24defc473c93160a3bfa9e9742b1588f40d9be0c498cc23b7fe57882f364736f6c63430006010033",
  "source": "pragma solidity ^0.6.0;\r\n\r\nimport \"./Ownable.sol\";\r\nimport \"./Item.sol\";\r\n\r\ncontract ItemManager is Ownable\r\n{\r\n    \r\n    enum SupplyChainState{Created, Paid, Delivered}\r\n\r\n    struct S_Item\r\n    {\r\n        Item _item;\r\n        string _identifier;\r\n        uint _itemPrice;\r\n        ItemManager.SupplyChainState _state;\r\n    }\r\n\r\n    mapping(uint => S_Item) public items;\r\n    uint itemIndex;\r\n\r\n    event SupplyChainStatus(uint _itemIndex, uint _status, address _itemAdress);\r\n\r\n    function createItem(string memory _identifier, uint _itemPrice) public onlyOwner\r\n    {\r\n        Item item = new Item(this, _itemPrice, itemIndex);\r\n        items[itemIndex]._item = item;\r\n        items[itemIndex]._identifier = _identifier;\r\n        items[itemIndex]._itemPrice = _itemPrice;\r\n        items[itemIndex]._state = SupplyChainState.Created;\r\n        emit SupplyChainStatus(itemIndex, uint(items[itemIndex]._state), address(item));\r\n        itemIndex++;\r\n    }\r\n\r\n    function Payment(uint _itemIndex) public payable\r\n    {\r\n        require(items[_itemIndex]._itemPrice == msg.value, \"Only full payments accepted\");\r\n        require(items[_itemIndex]._state == SupplyChainState.Created, \"Item is further in supply chain\");\r\n        items[_itemIndex]._state = SupplyChainState.Paid;\r\n        emit SupplyChainStatus(itemIndex, uint(items[_itemIndex]._state), address(items[_itemIndex]._item));\r\n    }\r\n\r\n    function Delivery(uint _itemIndex) public onlyOwner\r\n    {\r\n        require(items[_itemIndex]._state == SupplyChainState.Paid, \"Item is further in supply chain\");\r\n        items[_itemIndex]._state = SupplyChainState.Delivered;\r\n        emit SupplyChainStatus(itemIndex, uint(items[_itemIndex]._state), address(items[_itemIndex]._item));\r\n    }\r\n}",
  "sourcePath": "C:\\Users\\Admin\\Desktop\\Tu4k0\\Blockchain_Solidity_Udemy_course\\Supply_Chain\\contracts\\ItemManager.sol",
  "compiler": {
    "name": "solc",
    "version": "0.6.1+commit.e6f7d5a4.Emscripten.clang"
  },
  "schemaVersion": "3.0.20",
  "updatedAt": "2022-05-03T12:12:17.793Z",
  "networkType": "ethereum",
  "devdoc": {
    "methods": {}
  },
  "userdoc": {
    "methods": {}
  }
}