{
  "contractName": "Item",
  "abi": [
    {
      "inputs": [
        {
          "internalType": "contract ItemManager",
          "name": "_parentContract",
          "type": "address"
        },
        {
          "internalType": "uint256",
          "name": "_priceinWei",
          "type": "uint256"
        },
        {
          "internalType": "uint256",
          "name": "_index",
          "type": "uint256"
        }
      ],
      "stateMutability": "nonpayable",
      "type": "constructor"
    },
    {
      "stateMutability": "nonpayable",
      "type": "fallback"
    },
    {
      "inputs": [],
      "name": "index",
      "outputs": [
        {
          "internalType": "uint256",
          "name": "",
          "type": "uint256"
        }
      ],
      "stateMutability": "view",
      "type": "function"
    },
    {
      "inputs": [],
      "name": "pricePaid",
      "outputs": [
        {
          "internalType": "uint256",
          "name": "",
          "type": "uint256"
        }
      ],
      "stateMutability": "view",
      "type": "function"
    },
    {
      "inputs": [],
      "name": "priceinWei",
      "outputs": [
        {
          "internalType": "uint256",
          "name": "",
          "type": "uint256"
        }
      ],
      "stateMutability": "view",
      "type": "function"
    },
    {
      "stateMutability": "payable",
      "type": "receive"
    }
  ],
  "bytecode": "0x608060405234801561001057600080fd5b506040516104b43803806104b48339818101604052606081101561003357600080fd5b81019080805190602001909291908051906020019092919080519060200190929190505050816000819055508060028190555082600360006101000a81548173ffffffffffffffffffffffffffffffffffffffff021916908373ffffffffffffffffffffffffffffffffffffffff1602179055505050506103fb806100b96000396000f3fe6080604052600436106100385760003560e01c80632986c0e5146103055780634ba873881461033057806389794d001461035b576102f6565b366102f6576000600154146100b5576040517f08c379a00000000000000000000000000000000000000000000000000000000081526004018080602001828103825260148152602001807f4974656d206973207061696420616c726561647900000000000000000000000081525060200191505060405180910390fd5b346000541461012c576040517f08c379a000000000000000000000000000000000000000000000000000000000815260040180806020018281038252601a8152602001807f4f6e6c792066756c6c207061796d656e747320616c6c6f77656400000000000081525060200191505060405180910390fd5b346001819055506000600360009054906101000a900473ffffffffffffffffffffffffffffffffffffffff1673ffffffffffffffffffffffffffffffffffffffff1634600254604051602401808281526020019150506040516020818303038152906040527fd73298c5000000000000000000000000000000000000000000000000000000007bffffffffffffffffffffffffffffffffffffffffffffffffffffffff19166020820180517bffffffffffffffffffffffffffffffffffffffffffffffffffffffff83818316178352505050506040518082805190602001908083835b60208310610232578051825260208201915060208101905060208303925061020f565b6001836020036101000a03801982511681845116808217855250505050505090500191505060006040518083038185875af1925050503d8060008114610294576040519150601f19603f3d011682016040523d82523d6000602084013e610299565b606091505b50509050806102f3576040517f08c379a000000000000000000000000000000000000000000000000000000000815260040180806020018281038252602d815260200180610399602d913960400191505060405180910390fd5b50005b34801561030257600080fd5b50005b34801561031157600080fd5b5061031a610386565b6040518082815260200191505060405180910390f35b34801561033c57600080fd5b5061034561038c565b6040518082815260200191505060405180910390f35b34801561036757600080fd5b50610370610392565b6040518082815260200191505060405180910390f35b60025481565b60005481565b6001548156fe546865207472616e73616374696f6e207761736e6074207375636365737366756c2c2063616e63656c6c696e67a26469706673582212204c1462ca434307984bd003099d0c6867117be62f4d0d2a782dc5085f45116f2664736f6c63430006010033",
  "source": "pragma solidity ^0.6.0;\r\n\r\nimport \"./ItemManager.sol\";\r\n\r\ncontract Item\r\n{\r\n    uint public priceinWei;\r\n    uint public pricePaid;\r\n    uint public index;\r\n\r\n    ItemManager parentContract;\r\n\r\n    constructor(ItemManager _parentContract, uint _priceinWei, uint _index) public\r\n    {\r\n        priceinWei = _priceinWei;\r\n        index = _index;\r\n        parentContract = _parentContract;\r\n    }\r\n\r\n    receive() external payable\r\n    {\r\n        require(pricePaid == 0, \"Item is paid already\");\r\n        require(priceinWei == msg.value, \"Only full payments allowed\");\r\n        pricePaid = msg.value;\r\n        (bool success, ) =address (parentContract).call.value(msg.value)(abi.encodeWithSignature(\"Payment(uint256)\", index));\r\n        require(success, \"The transaction wasn`t successful, cancelling\");\r\n    }\r\n\r\n    fallback() external\r\n    {\r\n\r\n    }\r\n}",
  "sourcePath": "C:\\Users\\Admin\\Desktop\\Tu4k0\\Blockchain_Solidity_Udemy_course\\Supply_Chain\\contracts\\Item.sol",
  "compiler": {
    "name": "solc",
    "version": "0.6.1+commit.e6f7d5a4.Emscripten.clang"
  },
  "schemaVersion": "3.0.20",
  "updatedAt": "2022-05-03T12:12:16.024Z",
  "devdoc": {
    "methods": {}
  },
  "userdoc": {
    "methods": {}
  }
}