{
  "contractName": "Ownable",
  "abi": [
    {
      "inputs": [],
      "stateMutability": "nonpayable",
      "type": "constructor"
    },
    {
      "inputs": [],
      "name": "isOwner",
      "outputs": [
        {
          "internalType": "bool",
          "name": "",
          "type": "bool"
        }
      ],
      "stateMutability": "view",
      "type": "function"
    }
  ],
  "bytecode": "0x6080604052348015600f57600080fd5b50336000806101000a81548173ffffffffffffffffffffffffffffffffffffffff021916908373ffffffffffffffffffffffffffffffffffffffff16021790555060da8061005e6000396000f3fe6080604052348015600f57600080fd5b506004361060285760003560e01c80638f32d59b14602d575b600080fd5b6033604d565b604051808215151515815260200191505060405180910390f35b60008060009054906101000a900473ffffffffffffffffffffffffffffffffffffffff1673ffffffffffffffffffffffffffffffffffffffff163373ffffffffffffffffffffffffffffffffffffffff161490509056fea26469706673582212205f025d26b004b8df85e700316afc8407262e3599d66545118fc0594bf52ef0ac64736f6c63430006010033",
  "source": "pragma solidity ^0.6.0;\r\n\r\ncontract Ownable\r\n{\r\n    address payable _owner;\r\n\r\n    constructor() public\r\n    {\r\n        _owner = msg.sender;\r\n    }\r\n\r\n    modifier onlyOwner()\r\n    {\r\n        require(isOwner(), \"You are not the Owner!\");\r\n        _;\r\n    }\r\n\r\n    function isOwner() public view returns(bool)\r\n    {\r\n        return (msg.sender == _owner);\r\n    }\r\n\r\n}",
  "sourcePath": "C:\\Users\\Admin\\Desktop\\Tu4k0\\Blockchain_Solidity_Udemy_course\\Supply_Chain\\contracts\\Ownable.sol",
  "compiler": {
    "name": "solc",
    "version": "0.6.1+commit.e6f7d5a4.Emscripten.clang"
  },
  "schemaVersion": "3.0.20",
  "updatedAt": "2022-05-03T12:12:16.037Z",
  "devdoc": {
    "methods": {}
  },
  "userdoc": {
    "methods": {}
  }
}